:100000000C9462000C948A000C948A000C943404C2
:100010000C9434040C9434040C948A000C948A00DC
:100020000C948A000C948A000C948A000C948A0028
:100030000C948A000C948A000C948A000C948A0018
:100040000C94EA030C948A000C948A000C948A00A5
:100050000C948A000C948A000C948A000C948A00F8
:100060000C948A000C948A000000000023002600F3
:10007000290000000000240027002A0000000000E2
:10008000250028002B0004040404040404040202D4
:100090000202020203030303030301020408102007
:1000A0004080010204081020010204081020000012
:1000B0000008000201000003040700000000000027
:1000C0000000750711241FBECFEFD8E0DEBFCDBF03
:1000D00011E0A0E0B1E0EEEFF4E102C005900D9276
:1000E000A032B107D9F721E0A0E2B1E001C01D9232
:1000F000A43EB207E1F710E0C2E6D0E004C02197C9
:10010000FE010E945109C136D107C9F70E94AE0411
:100110000C947D0A0C94000090E0FC01E255FF4F26
:100120002491FC01E656FF4F3491FC01EA57FF4F42
:10013000E491EE2309F43CC0222339F1233091F0FD
:1001400038F42130A9F0223001F584B58F7D12C03A
:10015000273091F02830A1F02430B9F4809180004C
:100160008F7D03C0809180008F77809380000DC0C9
:1001700084B58F7784BD09C08091B0008F7703C0AC
:100180008091B0008F7D8093B000F0E0EE0FFF1FF4
:10019000E458FF4FA591B4919FB7F894611104C042
:1001A0008C913095382302C0EC913E2B3C939FBF3D
:1001B0000895CF93DF9390E0FC01E656FF4F249122
:1001C000FC01EA57FF4F8491882361F190E0880F8A
:1001D000991FFC01EE58FF4FC591D491FC01E458E2
:1001E000FF4FA591B491611109C09FB7F894888120
:1001F000209582238883EC912E230BC0623061F41A
:100200009FB7F8948881322F309583238883EC91AF
:100210002E2B2C939FBF06C08FB7F894E8812E2B0E
:1002200028838FBFDF91CF910895CF92DF92EF9215
:10023000FF920F931F93CF93DF936C017A018B0191
:10024000C0E0D0E0CE15DF0581F0D8016D918D01C1
:10025000D601ED91FC910190F081E02DC601099548
:10026000892B11F02196EECF7E01C701DF91CF914E
:100270001F910F91FF90EF90DF90CF900895209104
:100280006201309163012817390771F49091600180
:1002900080916101981741F0E0916001F0E0E05E2B
:1002A000FE4F808190E008958FEF9FEF08950895AD
:1002B0001F93CF93DF93DC015C968D919C915D97AA
:1002C000009739F421E030E013963C932E93129777
:1002D0003BC05196ED91FC91529750962C915097BE
:1002E000322F30951FB75E964C915E97742F7270C7
:1002F00041FD6095F8944081772311F0422B01C0B5
:1003000043234083EC012197F1F748E0508160FFDF
:1003100002C0522B01C053235083EC012197F1F707
:100320006695415099F78081772319F08323808364
:1003300002C0282B20831FBF5C968D919C915D97F6
:100340000197F1F781E090E0DF91CF911F9108953F
:1003500020916201309163012817390771F480916F
:1003600061012091600190E0805C9F4F821B9109A8
:1003700060E470E00E942909089580E090E008950B
:10038000209162013091630128173907B9F49091E7
:10039000600180916101981789F0E0916001F0E0BF
:1003A000E05EFE4F80812091600130E02F5F3F4F83
:1003B0002F7333272093600190E008958FEF9FEF14
:1003C000089580E090E008951F93CF93DF93EC01B0
:1003D00088819981009759F1162FDC01ED91FC91EC
:1003E0000190F081E02D6E3761F46DE70995888109
:1003F0009981DC01ED91FC910190F081E02D6EE599
:100400000DC06D3759F46DE7099588819981DC013C
:10041000ED91FC910190F081E02D6DE50995288525
:100420003985210F311D230F30E039872887DF916F
:10043000CF911F91089508959F92AF92BF92CF924E
:10044000DF92EF92FF920F931F93CF93DF93FC0104
:10045000A281B381862F90E0A817B90721F0AF3FA2
:10046000B10509F05EC04115534009F05AC068015A
:1004700079015F01D901C80124E0B695A795979548
:1004800087952A95D1F7E82FEF709E2EBB27AF2DC9
:100490009E2D8D2D2C2D2F70C22FD0E08501F4E0E4
:1004A0002F9F000D111D1124BC01CD017F708827E5
:1004B00099270E942E0820E030E04AEF53E40E9482
:1004C0008D07F801658B768B878B908F2196CC0FEB
:1004D000DD1FCC0FDD1FCA0DDB1DC701B60154E1C6
:1004E00096958795779567955A95D1F70E942E082E
:1004F00020E030E04AEF53E40E948D076D8B7E8B45
:100500008F8B988FF5E0F91578F0F50124E0929E35
:10051000E00DF11D1124158A168A178A108E939406
:10052000F1CF80E090E002C080E093E0DF91CF91D6
:100530001F910F91FF90EF90DF90CF90BF90AF9001
:100540009F90089580E090E008950895CF932091C2
:10055000D2013091D301232BA9F1C82F61E0809102
:10056000D8010E94D9008091D2019091D301DC0181
:10057000ED91FC910190F081E02D6EE7099580915D
:10058000D2019091D301DC01ED91FC910190F081B9
:10059000E02D6C2F09958091D2019091D301DC015F
:1005A000ED91FC910680F781E02D09958091D201B3
:1005B0009091D301892B31F060E08091D801CF91E7
:1005C0000C94D900CF9108950F931F93CF93DF938D
:1005D00000D000D000D0CDB7DEB77A8369832B83FB
:1005E0003C834D835E83DC012D913C91232BF1F103
:1005F0008C0161E0FC0186810E94D90060E1C801A4
:100600000E94E4016981C8010E94E4016A81C80175
:100610000E94E4016B81C8010E94E4016C81C80161
:100620000E94E4016D81C8010E94E4016E81C8014D
:100630000E94E401D80118966C916095C8010E944F
:10064000E401F8011186108680819181DC01ED9131
:10065000FC910680F781E02D0995F8018081918158
:10066000892B21F060E086810E94D90026960FB682
:10067000F894DEBF0FBECDBFDF91CF911F910F91D8
:100680000895EF92FF920F931F93CF93DF9350E063
:10069000DC011296ED91FC911397E417F50709F030
:1006A00090C0EB017C01FC0181899289A389B48906
:1006B00080179107A207B30708F04AC0045D1E4FD8
:1006C0002F4F3F4F018B128B238B348B84818130D2
:1006D00049F178F0823009F074C025853685478568
:1006E000508960E073E0CE010E94E402F7011482B9
:1006F00068C0F701258136814781508560E073E04D
:10070000CE010E94E402F70181859285A385B4851C
:10071000892B8A2B8B2B11F081E018C0D7011496FE
:100720001C924FC0F701218532854385548560E0D6
:1007300073E0CE010E94E402F70185859685A785C6
:10074000B089892B8A2B8B2B49F382E0848339C0B3
:1007500088819981892BA9F161E08E810E94D9005D
:1007600060E0CE010E94E40160E0CE010E94E4015D
:1007700063E0CE010E94E40114E060E0CE010E943B
:10078000E4011150D1F768856095CE010E94E40123
:100790001986188688819981DC01ED91FC9106808B
:1007A000F781E02D099588819981892B51F060E0CE
:1007B0008E81DF91CF911F910F91FF90EF900C945C
:1007C000D900DF91CF911F910F91FF90EF90089585
:1007D0000E94780A1F920F920FB60F9211242F9346
:1007E0003F938F939F93AF93BF9380919601909186
:1007F0009701A0919801B09199013091950123E062
:10080000230F2D3720F40196A11DB11D05C026E848
:10081000230F0296A11DB11D20939501809396018F
:1008200090939701A0939801B093990180919101C1
:1008300090919201A0919301B09194010196A11D14
:10084000B11D8093910190939201A0939301B09375
:100850009401BF91AF919F918F913F912F910F90F4
:100860000FBE0F901F9018951F920F920FB60F9208
:1008700011242F933F934F935F936F937F938F93A5
:100880009F93AF93BF93EF93FF93E0916201F09139
:100890006301309709F451C0968DA685B78585858B
:1008A00091FF04C09C91892329F447C09C9189231E
:1008B00009F043C0A389B4899C91858980958923D7
:1008C0008C93868997890197F1F7608D718DA68544
:1008D000B785558538E020E0CB010197F1F7822FED
:1008E00090E095958795282F4C91452309F0206835
:1008F000315091F7868D81FD20958091610190E0C6
:1009000001968F73992730916001381749F0A091B3
:100910006101B0E0A05EBE4F2C938093610103C0E3
:10092000868D8160868F828D938D0197F1F7A389E3
:10093000B4899C918589892B8C93FF91EF91BF910C
:10094000AF919F918F917F916F915F914F913F9167
:100950002F910F900FBE0F901F901895789484B52B
:10096000826084BD84B5816084BD85B5826085BDAB
:1009700085B5816085BD80916E00816080936E0039
:10098000109281008091810082608093810080912B
:1009900081008160809381008091800081608093DC
:1009A00080008091B10084608093B1008091B0009C
:1009B00081608093B00080917A00846080937A0097
:1009C00080917A00826080937A0080917A008160C1
:1009D00080937A0080917A00806880937A001092E8
:1009E000C10084E691E090939B0180939A0110925C
:1009F0009D0110929C0110929F0110929E011092F5
:100A0000A1011092A0011092A3011092A2011092D4
:100A1000A5011092A4011092A7011092A6011092B4
:100A2000A9011092A8011092AB011092AA01109294
:100A3000AD011092AC011092AF011092AE01109274
:100A4000B1011092B0011092B3011092B201109254
:100A5000B5011092B4011092B7011092B601109234
:100A6000B9011092B8011092BB011092BA01109214
:100A7000BD011092BC011092BF011092BE011092F4
:100A8000C1011092C0011092C3011092C2011092D4
:100A9000C5011092C4011092C7011092C6011092B4
:100AA000C9011092C8011092CB011092CA01109294
:100AB000CD011092CC011092CF011092CE01109274
:100AC000D1011092D0011092DC0180E08C3171F0E4
:100AD00091E0980FE82FF0E0EE0FFF1FE656FE4F73
:100AE00020813181232B11F0892FF0CF8093DC01FD
:100AF000E091D601F091D7013097E9F082E191E0E1
:100B0000918380838091620190916301E817F907D6
:100B100059F4A389B4899C918589809589238C9304
:100B20001092630110926201CF010E94EF091092AE
:100B3000D7011092D60182E090E09093D901809382
:100B4000D8018FE190E00E945709EC011B821A82C4
:100B500088EE93E0A0E0B0E08C839D83AE83BF83FA
:100B600082E191E0998388831F8A1E8A198E188EEC
:100B70001B8E1A8E1D8E1C8E6E8D6E7F62606E8F28
:100B80006695617081E0682782E00E948C0061E0D8
:100B900082E00E94D9006CE9E62E60E0F62EF701B3
:100BA0008491888B08E810E0F8018491E82FF0E048
:100BB000EE0FFF1FE458FF4F859194919A8B898B1C
:100BC00060E082E00E94D9008E8D81FD04C061E06A
:100BD00082E00E948C0082E08C87F701E490ED8631
:100BE000F8010491E02FF0E0EE0FFF1FE859FF4FEE
:100BF000859194919F878E87D093D701C093D6011A
:100C0000D093D301C093D20182E490E09D8F8C8F6A
:100C10002FE030E03F8B2E8B20E430E0398F288F9F
:100C200027E230E03B8F2A8F2091680024602093D8
:100C300068002DE630E03C8B2B8B24E02D8B019758
:100C4000F1F7E0916201F0916301CE17DF07D1F077
:100C5000309739F0A389B4899C918589809589233F
:100C60008C938E8D8E7F8E8F109261011092600119
:100C7000D0936301C0936201EB89FC8990818D89D7
:100C8000892B80831092DB011092DA0130E0E32E91
:100C900030E0F32E40E4D42ED0927C0080917A0094
:100CA000806480937A0080917A0086FDFCCF609109
:100CB00078008091790070E0782B072E000C880B6B
:100CC000990B0E94300820E030E040EA50E40E9496
:100CD000BC0820E030EC4FE754E40E948D0720E090
:100CE00030E04AEF53E40E94BC080E94FF077F7087
:100CF000CB01A0E0B0E0BA2FA92F982F8827806100
:100D00008093690190936A01A0936B01B0936C0189
:100D100010926D0110926E0110926F01109270018D
:100D2000109271011092720110927301109274016D
:100D30008091D2019091D301892B09F4CFC08FB754
:100D4000F8948090960190909701A0909801B090AF
:100D500099018FBFC091DE01D091DF018091D20156
:100D60009091D301209709F47FC0892B09F479C0B1
:100D70008E01025C1F4FF80180819181A281B381B5
:100D800088169906AA06BB0608F447C088E90E949F
:100D9000A6028DAD24013501FCE04F0E511C611CF3
:100DA000711C8823D9F0813061F5FE01EA5BFF4FA9
:100DB000208131814281538164E071EF82ED91E0C5
:100DC0000E94E402D501C40184549E4FAF4FBF4F2F
:100DD000F80180839183A283B38313C0FE01EE5B8D
:100DE000FF4F208131814281538161E071EF82EDBB
:100DF00091E00E94E402D8014D925D926D927C9246
:100E000013978DAD8F5F823010F48DAF01C01DAE92
:100E100049AE5AAE6BAE7CAE24C089AD9AADABADD7
:100E2000BCAD88169906AA06BB06D8F088AD8C31F1
:100E300008F018AE88AD91E0980F98AFFE01E80F6A
:100E4000F11DE80FF11D1081812F0E94A602D5012E
:100E5000C4010C96A11DB11D89AF9AAFABAFBCAF59
:100E600001C01FEFC12F1DC0DC01ED91FC9100847A
:100E7000F185E02D0995892B89F18091D20190911E
:100E8000D301DC01ED91FC910284F385E02D0995FD
:100E90009091DD019E3711F4C82F01C0CFEF8093F0
:100EA000DD01CF3FD9F0D0E08091DC01D817B0F45C
:100EB000ED2FF0E0EE0FFF1FE656FE4F808191818F
:100EC000DC01ED91FC910190F081E02D9501840110
:100ED0004C2F62ED71E00995DF5FE6CFE114F1047C
:100EE00009F4DACE0E940000D7CEE4E6F1E081EA10
:100EF00090E09383828314828AE091E091838083DF
:100F0000EAE9F1E013AE12AE11AE10AE15AE14AEBA
:100F10001092DF011092DE0108950E94A1070C9447
:100F200082080E947B0858F00E94740840F029F45F
:100F30005F3F29F00C946B0851110C94B6080C9487
:100F400071080E94930868F39923B1F3552391F334
:100F5000951B550BBB27AA2762177307840738F028
:100F60009F5F5F4F220F331F441FAA1FA9F335D085
:100F70000E2E3AF0E0E832D091505040E695001C39
:100F8000CAF72BD0FE2F29D0660F771F881FBB1FF3
:100F9000261737074807AB07B0E809F0BB0B802DD1
:100FA000BF01FF2793585F4F3AF09E3F510578F0FD
:100FB0000C946B080C94B6085F3FE4F3983ED4F3AE
:100FC000869577956795B795F7959F5FC9F7880FD1
:100FD000911D9695879597F90895E1E0660F771F23
:100FE000881FBB1F621773078407BA0720F0621BB4
:100FF000730B840BBA0BEE1F88F7E09508950E94DF
:101000009B0888F09F5798F0B92F9927B751B0F0F7
:10101000E1F0660F771F881F991F1AF0BA95C9F77C
:1010200014C0B13091F00E94B508B1E008950C945D
:10103000B508672F782F8827B85F39F0B93FCCF310
:10104000869577956795B395D9F73EF490958095F9
:10105000709561957F4F8F4F9F4F0895E89409C019
:1010600097FB3EF490958095709561957F4F8F4FDB
:101070009F4F9923A9F0F92F96E9BB279395F695F1
:10108000879577956795B795F111F8CFFAF4BB0F6F
:1010900011F460FF1BC06F5F7F4F8F4F9F4F16C0D3
:1010A000882311F096E911C0772321F09EE8872F5D
:1010B000762F05C0662371F096E8862F70E060E019
:1010C0002AF09A95660F771F881FDAF7880F969592
:1010D000879597F9089597F99F6780E870E060E039
:1010E00008959FEF80EC089500240A9416161706C1
:1010F00018060906089500240A9412161306140609
:1011000005060895092E0394000C11F4882352F06B
:10111000BB0F40F4BF2B11F460FF04C06F5F7F4F23
:101120008F4F9F4F089557FD9058440F551F59F00A
:101130005F3F71F04795880F97FB991F61F09F3FC4
:1011400079F087950895121613061406551FF2CFED
:101150004695F1DF08C0161617061806991FF1CF3D
:1011600086957105610508940895E894BB27662764
:101170007727CB0197F908950E94CF080C94820835
:101180000E94740838F00E947B0820F0952311F02B
:101190000C946B080C94710811240C94B6080E94EE
:1011A000930870F3959FC1F3950F50E0551F629F10
:1011B000F001729FBB27F00DB11D639FAA27F00DB0
:1011C000B11DAA1F649F6627B00DA11D661F829FD7
:1011D0002227B00DA11D621F739FB00DA11D621FBC
:1011E000839FA00D611D221F749F3327A00D611DD9
:1011F000231F849F600D211D822F762F6A2F1124BB
:101200009F5750409AF0F1F088234AF0EE0FFF1FED
:10121000BB1F661F771F881F91505040A9F79E3F44
:10122000510580F00C946B080C94B6085F3FE4F312
:10123000983ED4F3869577956795B795F795E7959A
:101240009F5FC1F7FE2B880F911D9695879597F9A3
:10125000089597FB072E16F4009407D077FD09D068
:101260000E943D0907FC05D03EF4909581959F4F63
:101270000895709561957F4F0895AA1BBB1B51E19E
:1012800007C0AA1FBB1FA617B70710F0A61BB70BF6
:10129000881F991F5A95A9F780959095BC01CD019B
:1012A0000895EE0FFF1F0590F491E02D09940F9320
:1012B0001F93CF93DF938230910510F482E090E08A
:1012C000E091E201F091E30120E030E0A0E0B0E045
:1012D000309719F1408151810281138148175907D4
:1012E000C8F08417950769F4109731F012960C93A3
:1012F000129713961C9327C00093E2011093E30109
:1013000022C02115310519F04217530718F49A012C
:10131000BD01EF01DF01F801DBCF21153105F9F047
:10132000281B390B2430310580F48A819B8161159B
:10133000710521F0FB019383828304C09093E30144
:101340008093E201FE01329644C0FE01E20FF31FDA
:101350008193919322503109398328833AC0209197
:10136000E0013091E101232B41F420910201309101
:1013700003013093E1012093E001209100013091BD
:1013800001012115310541F42DB73EB7409104010B
:1013900050910501241B350BE091E001F091E10132
:1013A000E217F307A0F42E1B3F0B2817390778F03C
:1013B000AC014E5F5F4F2417350748F04E0F5F1F9B
:1013C0005093E1014093E0018193919302C0E0E0EA
:1013D000F0E0CF01DF91CF911F910F910895CF934E
:1013E000DF93009709F481C0FC01329713821282C7
:1013F000A091E201B091E301109781F42081318145
:10140000820F931F2091E0013091E10128173907E5
:1014100051F5F093E101E093E00167C0ED0120E0B8
:1014200030E0CE17DF0740F44A815B819E01411511
:101430005105F1F0EA01F5CFD383C2834081518198
:10144000840F951FC817D90759F488819981840F93
:10145000951F0296918380838A819B8193838283E7
:101460002115310529F4F093E301E093E2013DC039
:10147000E901FB83EA8349915991C40FD51FEC1709
:10148000FD0761F480819181840F951F0296E90127
:1014900099838883828193819B838A83E0E0F0E053
:1014A00012968D919C911397009719F0FD01DC0124
:1014B000F7CF8D919C9111979D012E5F3F4F820F29
:1014C000931F2091E0013091E1012817390769F459
:1014D000309729F41092E3011092E20102C01382C6
:1014E0001282B093E101A093E001DF91CF910895C2
:0E14F00081E090E0F8940C947D0AF894FFCF10
:1014FE000000E40180000000000041031C02000017
:10150E00000058011501E1015701A801C0013F017A
:00000001FF
